:100000000C9427340C9458340C9458340C94583471
:100010000C9458340C9414E70C9458340D942D73AC
:100020000C949FE60C9458340C9458340C94583427
:100030000C9458340C9458340D94FD840D94CD25B3
:100040000C9458340D9428300C9458340C94583433
:100050000C9458340C9458340C9458340D946D49C5
:100060000C9458340D945A200C9458340C945834F1
:100070000C9458340C9458340C9458340C945834D0
:100080000C9458340C9458340C9458340C945834C0
:100090000D9416200C9458340C9458340C94583405
:1000A0000C9458340C9458340D94C6240C94583441
:1000B0000C9458340D94A8240C9458340C9458344F
:1000C0000C9458340C9458340C9458340D941B24CC
:1000D0000C9458340C9458340C9458340C94583470
:1000E0000C945834C980D280778046801680C183B2
:1000F0000D812C82C282188334836B830CB20FB2C1
:10010000FEB102B208B246B213B217B21DB221B2AA
:1001100025B22BB22FB233B246B239B23DB241B2A0
:1001200098B49DB4A2B4ACB4B6B42FB5C0B4C8B43E
:10013000D0B4DAB4E4B4EEB4FDB407B52FB511B55C
:100140001BB525B593DFAFDFC1DFCEDFD8DF07E01A
:100150007DDF1DE02FE02BE07DDF31E04EE062E04F
:1001600074E01102CB012502FF015F018D01A9019D
:100170008501F9018B01530195011702F101170265
:100180000902B5016701170217025B01E701AD0122
:10019000A701AB017101A3018301BF010702A10106
:1001A0000702A1010702A101B701B30169017D01A5
:1001B0007F011D025101A501D701C301DD01230209
:1001C000C701D301D9017901790199017901990117
:1001D0001B02CF01084AD73B3BCE016E84BCBFFD5A
:1001E000C12F3D6C74319ABD56833DDA3D00C77F07
:1001F00011BED9E4BB4C3E916BAAAABE00000080A0
:100200003F05A84CCDB2D44EB93836A9020C50B92E
:10021000918688083CA6AAAA2ABE000000803F0753
:10022000634236B79BD8A71A39685618AEBAAB5591
:100230008C1D3CB7CC5763BD6DEDFD753EF6177256
:1002400031BF000000803F08000000BE9224491228
:100250003EABAAAA2ABECDCCCC4C3E00000080BE4C
:10026000ABAAAAAA3E00000000BF000000803F0029
:1002700000000000084178D3BB4387D1133D190E1D
:100280003CC3BD4282AD2B3E68EC8276BED98FE185
:10029000A93E4C80EFFFBE01C4FF7F3F000000007D
:1002A00000000D94E7590D94F5150D94D44E0D945E
:1002B000C9640D94505F0D94AC1C0D9403510D94C2
:1002C00060160D94600F0D943F1D0D94DF5F0D942B
:1002D0008D1C0D94A8590D94C2640D94D7640D948F
:1002E000E9050D94C4490D94165F0D9423140D94E3
:1002F0004F170D9476640D94145E0D94B1590D94BE
:10030000BE590D9421050D94ED490D94C9160D9417
:100310004B4F0D94655E0D9423160D9455160D9458
:1003200017010D943DAB0D944C060D94D9150D9409
:100330005EA30D9479640D944E010D94C7620D94E3
:100340004B500D94D14B0D94CB490D94EA590D941B
:10035000A5490D944A160D94B2490D9497490D94F0
:10036000935E0D94215E0D94D54B0D945E1C0D94FF
:10037000D34B0D94534F0D94FF4F0D94E2040D9405
:10038000034A0D9436140D94F6590D94B94D0D94FD
:100390001C5A0D9463630D94A6160D94D0640D94AD
:1003A00088640D9416050D941F5A0D94DA050D946A
:1003B000ED590D94285A0D94B2200D94FF590D94C7
:1003C0002D6C0D94D3080D94B0480D94F4040D9445
:1003D00089490D94BD0E0D94424F0D9406600D9405
:1003E000F4500D949B1B0D94E5640D94AB5D0D943E
:1003F0002A620D94B9160D941C4E0D94BF4D0D94A8
:100400006B160D94DE640D940A5E0D9401050D9437
:10041000CF4B0D94ED1B0D9425620D94DC4B0D9488
:1004200043630D948A140D94FC620D94784E0D94E0
:10043000EA1B0D9463050D9485640D94CD590D94BC
:10044000C15E0D9476620D94085A0D9476160D9443
:1004500009010D94581D6E616E00696E66004E4173
:100460004E494E495459494E46CDCCCC3D0AD7232E
:100470003C17B7D13877CC2B329595E6241FB14F76
:100480000A000020410000C84200401C4620BCBEBB
:100490004CCA1B0E5AAEC59D7400407A10F35A0028
:1004A000A0724E18090010A5D4E80000E87648179D
:1004B0000000E40B54020000CA9A3B000000E1F582
:1004C00005000080969800000040420F000000A048
:1004D0008601000000102700000000E80300000073
:1004E000006400000000000A00000000000100009D
:1004F0000000002C76D888DC674F0823DFC1DFAE10
:1005000059E1B1B796E5E3E453C63AE651997696D8
:10051000E8E6C28426EB898C9B62ED407C6FFCEFA1
:10052000BC9C9F40F2BAA56FA5F490055A2AF75CCF
:10053000936B6CF9676DC11BFCE0E40D47FEF52081
:10054000E6B500D0ED902E03009435770500808449
:100550001E080000204E0A000000C80C333333335D
:100560000F986E12831141EF8D2114893BE65516C9
:10057000CFFEE6DB18D1844B381BF77C1D901DA401
:10058000BBE424203284725E228100C9F124ECA1F4
:10059000E53D276364696E6F70737578585B00255D
:1005A00064206279746573207772697474656E2053
:1005B000746F20454550524F4D2061742061646432
:1005C0007265737320307825303478004433202DE1
:1005D00020526561642F57726974652045455052F9
:1005E0004F4D0A00442D31202D20456E646C6573FB
:1005F00073206C6F6F700A005344207072696E74C0
:10060000696E67206279746520004163746976655C
:100610002045787472756465723A2000496E76617F
:100620006C6964206578747275646572005A204F35
:10063000666673657400556E6B6E6F776E20636FC0
:100640006D6D616E643A2022004D32303020496E6B
:1006500076616C69642065787472756465722000D7
:100660007A5F6D61783A20007A5F6D696E3A20009A
:10067000795F6D61783A2000795F6D696E3A20008C
:10068000785F6D61783A20006F70656E0054524952
:1006900047474552454400785F6D696E3A200052E5
:1006A00065706F7274696E6720656E6473746F70C5
:1006B000207374617475730053494C454E54004E59
:1006C0004F524D414C002553204D4F44453A205048
:1006D000657263656E7420646F6E653A2025686884
:1006E000643B207072696E742074696D6520726558
:1006F0006D61696E696E6720696E206D696E733A0F
:100700002025643B204368616E676520696E206D1B
:10071000696E733A2025640A00456E642066696C30
:1007200065206C69737400426567696E2066696C48
:1007300065206C697374000A50494E444120746509
:100740006D70657261747572653A20252E31662070
:100750005A20736869667420286D6D293A20252E09
:100760003366000A537465703A2025642F360A00F8
:100770000A537465703A2025642F362028736B69FC
:1007800070706564290A50494E44412074656D704B
:10079000657261747572653A202564205A20736809
:1007A00069667420286D6D293A300A000A5A45524C
:1007B0004F3A20252E33660A0073746172742074D8
:1007C000656D70657261747572653A20252E3166AB
:1007D0000A0025642020252E326600255320583A31
:1007E00020252E356620593A20252E3566205A3A86
:1007F00020252E35660A00536C6565702E2E2E005E
:1008000045303A25642052504D0A50524E303A2518
:10081000642052504D0A00256400416476616E6385
:1008200065204B3D004B206F7574206F6620616C16
:100830006C6F7765642072616E67652100200A2005
:100840000A20004D32323020532569002553466975
:100850006C616D656E742073657474696E67733A4C
:100860002044697361626C65640A00255346696CB3
:10087000616D656E742073657474696E67733A0A8E
:1008800025532020204D3230302044252E32660A58
:10089000002553526574726163743A20533D4C6570
:1008A0006E67746820286D6D2920463A537065651F
:1008B0006420286D6D2F6D29205A3A205A4C6966A4
:1008C0007420286D6D290A25532020204D323037A1
:1008D0002053252E32662046252E3266205A252E9C
:1008E00032660A25535265636F7665723A20533D2E
:1008F0004578747261206C656E67746820286D6D30
:100900002920463A537065656420286D6D2F6D2946
:100910000A25532020204D3230382053252E3266B0
:100920002046252E32660A25534175746F2D526577
:1009300074726163743A20533D3020746F2064698F
:100940007361626C652C203120746F20696E746550
:10095000727072657420657874727564652D6F6E3F
:100960006C79206D6F766573206173207265747287
:1009700061637473206F72207265636F766572694C
:1009800065730A25532020204D32303920532564C9
:100990000A002553504944206865617462656420EB
:1009A00073657474696E67733A0A25532020204D6D
:1009B0003330342050252E32662049252E326620D1
:1009C00044252E32660A002553504944207365742D
:1009D00074696E67733A0A25532020204D333031F5
:1009E0002050252E32662049252E32662044252EA1
:1009F00032660A0025535374657073207065722047
:100A0000756E69743A0A255320204D3932205825D5
:100A10002E32662059252E3266205A252E32662027
:100A200045252E32660A255355537465702072652C
:100A3000736F6C7574696F6E3A200A2553204D33BD
:100A400035302058256420592564205A25642045D6
:100A500025640A25534D6178696D756D206665655D
:100A6000647261746573202D206E6F726D616C20ED
:100A7000286D6D2F73293A0A255320204D323033CB
:100A80002058252E32662059252E3266205A252ED2
:100A900032662045252E32660A25534D6178696DF0
:100AA000756D20666565647261746573202D2073B1
:100AB0007465616C746820286D6D2F73293A0A255E
:100AC0005320204D3230332058252E3266205925B0
:100AD0002E3266205A252E32662045252E32660A91
:100AE00025534D6178696D756D20616363656C6533
:100AF000726174696F6E202D206E6F726D616C2053
:100B0000286D6D2F7332293A0A255320204D32303B
:100B1000312058256C752059256C75205A256C7527
:100B20002045256C750A25534D6178696D756D20DA
:100B3000616363656C65726174696F6E202D2073EB
:100B40007465616C746820286D6D2F7332293A0AC0
:100B5000255320204D3230312058256C75205925E1
:100B60006C75205A256C752045256C750A255341F6
:100B70006363656C65726174696F6E3A20503D7095
:100B800072696E742C20523D726574726163742CAC
:100B900020543D74726176656C0A255320204D32D5
:100BA00030342050252E32662052252E32662054B5
:100BB000252E32660A2553416476616E6365642092
:100BC0007661726961626C65733A20533D4D696E5E
:100BD00020666565647261746520286D6D2F7329C8
:100BE0002C20543D4D696E2074726176656C2066D0
:100BF0006565647261746520286D6D2F73292C20E2
:100C0000423D6D696E696D756D207365676D656ECA
:100C1000742074696D6520286D73292C20583D6DF2
:100C20006178696D756D205859206A65726B20284E
:100C30006D6D2F73292C20205A3D6D6178696D757B
:100C40006D205A206A65726B20286D6D2F73292CD8
:100C50002020453D6D6178696D756D2045206A6580
:100C6000726B20286D6D2F73290A255320204D3279
:100C700030352053252E32662054252E32662042F0
:100C8000252E32662058252E32662059252E3266B2
:100C9000205A252E32662045252E32660A255348D5
:100CA0006F6D65206F666673657420286D6D293AD7
:100CB0000A255320204D3230362058252E3266200A
:100CC00059252E3266205A252E32660A00462564A2
:100CD0002025640A004D4D55203C3D2027462564C3
:100CE000202564270A00504944204175746F7475AB
:100CF0006E652066696E697368656421205075743D
:100D000020746865206C617374204B702C204B69D3
:100D100020616E64204B6420636F6E7374616E7427
:100D2000732066726F6D2061626F766520696E74E4
:100D30006F20436F6E66696775726174696F6E2E9E
:100D40006800504944204175746F74756E65206663
:100D500061696C6564212074696D656F757400202C
:100D6000403A00543A00423A0050494420417574D8
:100D70006F74756E65206661696C656421205465C9
:100D80006D706572617475726520746F6F2068692B
:100D9000676800204B643A2000204B693A2000200D
:100DA0004B703A200020436C617373696320504993
:100DB0004420002054753A2000204B753A20002032
:100DC0006D61783A2000206D696E3A200020643A07
:100DD000200020626961733A20004361703A255314
:100DE0003A25630A004155544F5245504F52545FC3
:100DF000504F534954494F4E004155544F5245505E
:100E00004F52545F46414E53004155544F52455046
:100E10004F52545F54454D5000005A30005A310033
:100E2000593000593100583000583100456E642067
:100E300073746F707320646961670044656C6574D6
:100E4000696F6E206661696C65642C2046696C650B
:100E50003A200046696C652064656C657465643A87
:100E6000004E6F74205344207072696E74696E670F
:100E7000005072696E74207361766564005344207B
:100E80007072696E7420706175736564004F4B00F9
:100E90004241440052414D426F2046414E200043A2
:100EA000524153485F43414E43454C0043524153E6
:100EB000485F5245434F5645520043524153485FA5
:100EC0005245434F5645520022283229004475703E
:100ED0006C696361746520542D636F646520696774
:100EE0006E6F7265642E00496E76616C6964205481
:100EF00020636F64652E00556E6B6E6F776E204DAC
:100F000020636F64653A202573200A006E6F207697
:100F1000616C696420636F6D6D616E64002C2000EC
:100F20002C20002C20006E2F61002C20002C200093
:100F30002C20006E2F6100503A00576169742066C2
:100F40006F722050494E444120746172676574206D
:100F500074656D70657261747572653A00415554BF
:100F60004F004C414E472053454C20464F5243457D
:100F70004400256925250A00256925250A0022281F
:100F800031290030303030303030302D303030309A
:100F90002D303030302D303030302D30303030305A
:100FA000303030303030300020555549443A00312F
:100FB000002045585452554445525F434F554E54B6
:100FC0003A005072757361206933204D4B335300E2
:100FD000204D414348494E455F545950453A0031F0
:100FE0002E3000206261736564206F6E204D617247
:100FF0006C696E204649524D574152455F55524CDF
:101000003A68747470733A2F2F6769746875622E2A
:10101000636F6D2F707275736133642F50727573C7
:10102000612D4669726D776172652050524F544F41
:10103000434F4C5F56455253494F4E3A0046495232
:101040004D574152455F4E414D453A50727573615F
:101050002D4669726D7761726520004D3131332004
:10106000530020423A0020453A00543A006F6B206A
:10107000006E2F61003F546F736869626120466C97
:1010800061736841697220476574495020666169DF
:101090006C65640A002569206D696E2C2025692025
:1010A00073656300496E76616C6964204D20636FDF
:1010B00064653A202573200A00556E6B6E6F776E5B
:1010C000204720636F64653A202573200A004D6530
:1010D000736820626564206C6576656C696E672054
:1010E0006E6F74206163746976652E002020000A9B
:1010F0004D6561737572656420706F696E74733AC3
:10110000000A5A20736561726368206865696768C0
:10111000743A20004E756D20582C593A20005049E1
:101120004E44412070726F62652063616C69627227
:101130006174696F6E207374617274004732382075
:101140005730004E6F2050494E44412074686572FC
:101150006D6973746F7200736574006E6F7A7A6C68
:1011600065004D424C0046520042656174004C7A65
:10117000004C616E67005265760046697200534EFE
:1011800020696E76616C696400534E004D32380000
:101190005245534554004D4D55524553004D323440
:1011A0000075766C6F007468780046414E004641C9
:1011B0004E50494E5453540050524E0050696E6781
:1011C000005052555341005345545F43484F505FC0
:1011D000005345545F535445505F005345545F5787
:1011E0004156455F00544D435F0043524153485FB1
:1011F00043414E43454C0043524153485F5245439F
:101200004F5645520043524153485F44455445436D
:101210005445440043524153485F004D3120004D36
:1012200030004D31313700472D636F646520736C9A
:101230006963656420666F72206120646966666513
:1012400072656E74206C6576656C2E20436F6E74CB
:10125000696E75653F00472D636F646520736C6927
:1012600063656420666F72206120646966666572DA
:10127000656E74206C6576656C2E20506C656173AC
:10128000652072652D736C69636520746865206DD7
:101290006F64656C20616761696E2E205072696EA3
:1012A000742063616E63656C6C65642E00472D630A
:1012B0006F646520736C6963656420666F7220617A
:1012C000206E65776572206669726D776172652E32
:1012D00020506C656173652075706461746520745D
:1012E0006865206669726D776172652E205072693B
:1012F0006E742063616E63656C6C65642E00472DAF
:10130000636F646520736C6963656420666F722027
:1013100061206E65776572206669726D77617265AE
:101320002E20436F6E74696E75653F00472D636FA5
:10133000646520736C6963656420666F7220612048
:10134000646966666572656E74207072696E746534
:101350007220747970652E20436F6E74696E7565A6
:101360003F00472D636F646520736C69636564207B
:10137000666F72206120646966666572656E7420AE
:101380007072696E74657220747970652E20506C6D
:10139000656173652072652D736C6963652074687F
:1013A00065206D6F64656C20616761696E2E2050E9
:1013B00072696E742063616E63656C6C65642E0087
:1013C000507265737320746865206B6E6F62207451
:1013D0006F2070726568656174206E6F7A7A6C65D3
:1013E00020616E6420636F6E74696E75652E0050A7
:1013F0006C65617365207072657373207468652015
:101400006B6E6F6220746F20756E6C6F6164206606
:10141000696C616D656E740052656D6F7665206FE5
:101420006C642066696C616D656E7420616E642009
:10143000707265737320746865206B6E6F622074C0
:101440006F207374617274206C6F6164696E6720C1
:101450006E65772066696C616D656E742E00616ED5
:101460006420707265737320746865206B6E6F62A0
:1014700000496E736572742066696C616D656E7487
:1014800000436F6C6F72206E6F7420636F727265B1
:1014900063740046696C616D656E74206E6F7420B4
:1014A0006C6F61646564004368616E6765642063A6
:1014B0006F72726563746C793F004C6F6164696E22
:1014C0006720636F6C6F72004368616E676520739D
:1014D0007563636573732100506C65617365206F7C
:1014E00070656E2069646C657220616E642072653F
:1014F0006D6F76652066696C616D656E74206D61D7
:101500006E75616C6C792E005761732066696C6131
:101510006D656E7420756E6C6F61642073756363A6
:1015200065737366756C3F00506C656173652075FB
:101530007067726164652E004E6577206669726D12
:10154000776172652076657273696F6E206176616E
:10155000696C61626C653A0057616974696E6720F5
:10156000666F722050494E44412070726F62652050
:10157000636F6F6C696E67004372617368206465A6
:101580007465637465642E20526573756D65207093
:1015900072696E743F00437261736820646574659C
:1015A000637465642E0043686F6F7365206578749B
:1015B00072756465723A0043686F6F73652066697F
:1015C0006C616D656E743A004E6F206D6F76652E9E
:1015D00000537461626C6520616D6269656E742090
:1015E00074656D70657261747572652032312D326B
:1015F0003643206973206E656564656420612072DE
:1016000069676964207374616E6420697320726510
:101610007175697265642E00506C65617365207226
:10162000756E2058595A2063616C696272617469E1
:101630006F6E2066697273742E005761697420663C
:101640006F7220757365722E2E2E003B53006164FD
:10165000635F696E6974000A204F726967696E6121
:101660006C2050727573612069330A2020205072FB
:1016700075736120526573656172636800200A208A
:101680000A200A20005365727669636520707265CE
:101690007000416C6C204461746100536869707023
:1016A000696E672070726570005374617469737439
:1016B000696373004C616E677561676500455241EF
:1016C00053494E4720616C6C20646174610046612F
:1016D00063746F7279205245534554004449534115
:1016E000424C454400454E41424C4544002028733D
:1016F000656E736F7220626F6172642072657669C5
:1017000073696F6E3A2553290A004653656E736FED
:101710007220255300494E5434004D4B33534D4DE8
:10172000553253004E4F4D4B3353002E014E4F4315
:1017300054554100414C5446414E004D61792020A2
:1017400033203230323100436F6D70696C65643A1A
:101750002000286E6F6E652C2064656661756C7460
:1017600020636F6E66696729004D61792020332000
:10177000323032312032303A34383A303600203389
:101780002E31302E302D5243312D34303738007306
:101790007461727400534E207570646174652066C4
:1017A00061696C656400534E207570646174656492
:1017B00000416E206572726F72207768696C6520D7
:1017C00077726974696E6720746F2074686520533E
:1017D0004420436172642E002055706C6F61642058
:1017E000696E2070726F677265737300205A3A00D9
:1017F00020593A0020583A0043524153485F44452B
:1018000054454354454458590043524153485F445A
:1018100045544543544544590043524153485F445D
:101820004554454354454458004D32390045787479
:1018300065726E616C2053504920666C6173680A52
:1018400058464C415348206973206E6F742072656E
:10185000732D0A706F6E64696E672E204C616E671F
:10186000756167650A73776974636820756E617660
:1018700061696C61626C652E0043726173684465D6
:10188000746563742044495341424C45440043729B
:1018900061736844657465637420454E41424C45EC
:1018A00044210045787472756465722066616E200B
:1018B000747970653A200058464C415348206E6F49
:1018C0007420726573706F6E64696E672E002020DD
:1018D000506C616E6E6572427566666572427974AF
:1018E00065733A20002046726565204D656D6F7204
:1018F000793A2000207C20417574686F723A20008C
:10190000204C61737420557064617465643A2000E2
:1019100020536F6674776172652052657365740039
:10192000205761746368646F672052657365740043
:101930002042726F776E206F7574205265736574E4
:10194000002045787465726E616C20526573657411
:1019500000506F7765725570006572726F722077F4
:10196000726974696E6720746F2066696C650065C2
:101970006E6473746F7073206869743A2000446FEA
:101980006E6520736176696E672066696C652E00EE
:101990006F6B004D4B3353206669726D77617265D2
:1019A000206465746563746564206F6E204D4B33ED
:1019B000207072696E74657200507275736120696F
:1019C00033204D4B3353204F4B2E00426C61636BE1
:1019D0006F7574206F636375727265642E20526533
:1019E000636F766572207072696E743F0053656C28
:1019F00066746573742077696C6C206265207275FB
:101A00006E20746F2063616C69627261746520611D
:101A1000636375726174652073656E736F726C6554
:101A20007373207265686F6D696E672E0054686508
:101A30007265206973207374696C6C2061206E6517
:101A4000656420746F206D616B65205A2063616C42
:101A50006962726174696F6E2E20506C6561736586
:101A600020666F6C6C6F7720746865206D616E7591
:101A7000616C2C20636861707465722046697273B2
:101A8000742073746570732C2073656374696F6E52
:101A90002043616C6962726174696F6E20666C6F5D
:101AA000772E005072696E74657220686173206EC3
:101AB0006F74206265656E2063616C696272617427
:101AC0006564207965742E20506C656173652066AD
:101AD0006F6C6C6F7720746865206D616E75616CDA
:101AE0002C2063686170746572204669727374207B
:101AF00073746570732C2073656374696F6E204313
:101B0000616C6962726174696F6E20666C6F772EAA
:101B1000004F6C642073657474696E677320666F20
:101B2000756E642E2044656661756C74205049445E
:101B30002C20457374657073206574632E2077695B
:101B40006C6C206265207365742E005761726E693B
:101B50006E673A20626F7468207072696E74657285
:101B6000207479706520616E64206D6F7468657291
:101B7000626F6172642074797065206368616E675A
:101B800065642E005761726E696E673A20707269E3
:101B90006E7465722074797065206368616E676524
:101BA000642E005761726E696E673A206D6F7468BB
:101BB0006572626F61726420747970652063686118
:101BC0006E6765642E0058595A2063616C696272B1
:101BD0006174696F6E20616C6C2072696768742E25
:101BE00020536B65772077696C6C20626520636F8A
:101BF00072726563746564206175746F6D61746978
:101C000063616C6C792E0058595A2063616C69626B
:101C1000726174696F6E20616C6C207269676874A0
:101C20002E20582F592061786573206172652073CA
:101C30006C696768746C7920736B657765642E20B6
:101C4000476F6F64206A6F62210058595A206361A0
:101C50006C6962726174696F6E206F6B2E20582FF1
:101C600059206178657320617265207065727065B6
:101C70006E646963756C61722E20436F6E6772616A
:101C800074756C6174696F6E73210058595A2063C2
:101C9000616C6962726174696F6E206661696C65FE
:101CA000642E2052696768742066726F6E742063B8
:101CB000616C6962726174696F6E20706F696E74B5
:101CC000206E6F7420726561636861626C652E00BE
:101CD00058595A2063616C6962726174696F6E2031
:101CE0006661696C65642E2046726F6E7420636154
:101CF0006C6962726174696F6E20706F696E747363
:101D0000206E6F7420726561636861626C652E007D
:101D100058595A2063616C6962726174696F6E20F0
:101D20006661696C65642E20506C65617365206323
:101D30006F6E73756C7420746865206D616E75616B
:101D40006C2E0058595A2063616C69627261746923
:101D50006F6E20636F6D70726F6D697365642E2096
:101D600052696768742066726F6E742063616C6973
:101D700062726174696F6E20706F696E74206E6F2D
:101D80007420726561636861626C652E0058595AEF
:101D90002063616C6962726174696F6E20636F6D3C
:101DA00070726F6D697365642E2046726F6E742059
:101DB00063616C6962726174696F6E20706F696EC5
:101DC0007473206E6F7420726561636861626C6504
:101DD0002E0058595A2063616C6962726174696F90
:101DE0006E206661696C65642E20426564206361C3
:101DF0006C6962726174696F6E20706F696E7420B5
:101E0000776173206E6F7420666F756E642E00505C
:101E10006C6561736520706C6163652073746565C2
:101E20006C207368656574206F6E206865617462EC
:101E300065642E0044697374616E63652062657425
:101E40007765656E20746970206F66207468652000
:101E50006E6F7A7A6C6520616E64207468652062AA
:101E60006564207375726661636520686173206EB6
:101E70006F74206265656E20736574207965742EB9
:101E800020506C6561736520666F6C6C6F77207491
:101E90006865206D616E75616C2C2063686170747B
:101EA00065722046697273742073746570732C2098
:101EB00073656374696F6E204669727374206C6118
:101EC0007965722063616C6962726174696F6E2EEC
:101ED00000506C6163652061207368656574206FD4
:101EE0006620706170657220756E6465722074681A
:101EF00065206E6F7A7A6C6520647572696E6720F2
:101F00007468652063616C6962726174696F6E20C8
:101F10006F66206669727374203420706F696E7406
:101F2000732E20496620746865206E6F7A7A6C651E
:101F300020636174636865732074686520706170E4
:101F400065722C20706F776572206F6666207468EA
:101F500065207072696E74657220696D6D65646963
:101F60006174656C792E00506C65617365207265D3
:101F70006D6F766520737465656C20736865657434
:101F80002066726F6D20686561746265642E004919
:101F90007320737465656C207368656574206F6E5B
:101FA00020686561746265643F00206F66203400BC
:101FB000536561726368696E67206265642063615E
:101FC0006C6962726174696F6E20706F696E740003
:101FD000206F662039004D6561737572696E6720E8
:101FE0007265666572656E636520686569676874A9
:101FF000206F662063616C6962726174696F6E2024
:10200000706F696E7400506C6561736520636C65F8
:10201000616E20746865206E6F7A7A6C6520666FD9
:10202000722063616C6962726174696F6E2E204305
:102030006C69636B207768656E20646F6E652E0037
:102040004175746F20686F6D65004D6561737572C1
:10205000656420736B6577733A2025662025660AD0
:102060000046697474696E67206661696C656420F6
:102070003D3E2063616C6962726174696F6E2066B7
:1020800061696C65642E0A0043616C6962726174F7
:10209000696F6E20737563636573732E0A00416CFC
:1020A0006C20342063616C6962726174696F6E20A8
:1020B000706F696E747320666F756E642E0A007897
:1020C000797A63616C5F6D656173737572655F6565
:1020D0006E7465720A0078797A63616C5F737069F7
:1020E00072616C382063783D25642063793D2564F6
:1020F000207A303D256420647A3D25642072616435
:102100006975733D25642061643D25640A00787912
:102110007A63616C5F7365617263685A206E6F20C9
:102120007369676E616C0A20783D256C6420793D87
:10213000256C64207A3D256C640A00204F4E2D5397
:1021400049474E414C20617420783D256420793DFB
:102150002564207A3D25642061643D25640A007869
:10216000797A63616C5F7365617263685A20783D48
:10217000256C6420793D256C64207A3D256C640AC9
:102180000025640A005363616E20636F756E74648A
:102190006F776E3A20000A002530327800205B25E8
:1021A000662025665D206D6D207061747465726EA9
:1021B0002063656E7465720A00205B2566202566C3
:1021C0005D5B25665D206D6D20646976657267656F
:1021D0006E63650A000000F000F801FC03FE07FED4
:1021E00007FE07FE07FC03F801F0000000000000F6
:1021F00000F000F801FC03FC03FC03FC03F801F011
:10220000000000000078797A63616C5F6D6561732E
:10221000737572655F6C656176650A00203C20000D
:102220005741524E494E473A2046726F6E742070A5
:102230006F696E74206E6F7420726561636861628D
:102240006C652E205920636F6F7264696E617465CE
:102250003A0000000040410000C04000005C430024
:1022600000C04000005C43000046430000404100C5
:10227000004643497465726174696F6E3A20004389
:10228000616C6962726174696F6E206661696C6508
:10229000642120436865636B2074686520617865FC
:1022A0007320616E642072756E20616761696E2EA5
:1022B00000252E31305320002563252D31382E3155
:1022C00038732563002563252D2E313653200025D4
:1022D00063252E3135533A257325336400252D327D
:1022E000302E3230530A00457872656D6520737068
:1022F000616E206F6620746865205A2076616C7567
:10230000657321006F6B0A0073746172740A004D6B
:102310004D5532206669726D7761726520766572FF
:1023200073696F6E20696E76616C69642E205265E8
:102330007175697265642076657273696F6E3A2093
:102340006275696C64206E756D626572202564200B
:102350006F72206869676865722E004D4D55203D8B
:102360003E20276F6B270A004D4D55203D3E20270C
:102370006F6B270A002564004D4D55203D3E2027F8
:102380006F6B272C20726573756D65207072696E96
:10239000740A004D4D552072657472792061747411
:1023A000656D7074206E722E2025640A004D4D55A7
:1023B000203D3E20276F6B270A00410A004D4D55F6
:1023C000203C3D202741270A004D363030004D3655
:1023D0003030204155544F002568687500410A008F
:1023E0004D4D55203C3D202741270A0050300A0022
:1023F0004D25640A004D4D55203C3D20274D256458
:10240000270A0057300A004D4D55203C3D202757E4
:1024100030270A0053330A004D4D55203C3D2027FC
:102420005333270A0052300A004D4D55203C3D20C1
:10243000275230270A004B25640A004D4D55203C99
:102440003D20274B2564270A004525640A004D4D91
:1024500055203C3D2027452564270A0055300A00B9
:102460004D4D55203C3D20275530270A0043300A6A
:10247000004D4D55203C3D20274330270A004C2578
:10248000640A004D4D55203C3D20274C2564270A09
:10249000005425640A004D4D55203C3D202754250D
:1024A00064270A004D4D55202D20454E41424C4594
:1024B0004400256868750050300A004D310A004D0F
:1024C0004D55203C3D20274D31270050300A004D0E
:1024D0004D552076657273696F6E2076616C696404
:1024E000004D4D55203D3E202725646F6B270A0087
:1024F00025750053320A004D4D55203C3D20275391
:102500003227004D4D55203D3E202725646F6B2717
:102510000A002575004D4D55206E6F74207265734D
:10252000706F6E64696E67202D2044495341424CA0
:1025300045440053310A004D4D55203C3D20275362
:102540003127004D4D55203D3E2027737461727434
:102550002700426564206C6576656C696E6720664D
:1025600061696C65642E2053656E736F72206469B7
:10257000646E7420747269676765722E20446562A8
:10258000726973206F6E206E6F7A7A6C653F205788
:10259000616974696E6720666F7220726573657415
:1025A0002E00506C656173652075706461746520E0
:1025B0006669726D7761726520696E20796F7572D8
:1025C000204D4D55322E2057616974696E67206623
:1025D0006F722072657365742E0022206661696CCB
:1025E00065643A204275666665722066756C6C217A
:1025F000002200256920686F757273202569206D9F
:10260000696E757465730054494D454F55543A00D1
:102610004D3131300046756C6C2052582042756641
:1026200066657200656E717565696E67202200448B
:102630006F6E65207072696E74696E672066696C72
:1026400065004D3131322063616C6C65642E20452C
:102650006D657267656E63792053746F702E0050DC
:1026600072696E7465722073746F70706564206433
:10267000756520746F206572726F72732E204669C3
:102680007820746865206572726F7220616E6420B4
:10269000757365204D39393920746F2072657374F4
:1026A0006172742E202854656D7065726174757244
:1026B000652069732072657365742E2053657420DC
:1026C00069742061667465722072657374617274D6
:1026D000696E6729004E6F204C696E65204E756DDE
:1026E000626572207769746820636865636B7375CF
:1026F0006D2C204C617374204C696E653A20004E3D
:102700006F20436865636B73756D2077697468200B
:102710006C696E65206E756D6265722C204C6173FC
:1027200074204C696E653A2000636865636B73754D
:102730006D206D69736D617463682C204C617374D6
:10274000204C696E653A20004C696E65204E756DAF
:10275000626572206973206E6F74204C61737420FF
:102760004C696E65204E756D6265722B312C204C64
:10277000617374204C696E653A200053544F505079
:1027800045442E2000436F6F6C646F776E0050726B
:10279000656865617420746865206E6F7A7A6C650F
:1027A00021004552524F523A0046696C616D656E88
:1027B0007420657874727564696E67202620776965
:1027C000746820636F727265637420636F6C6F72DC
:1027D0003F004175746F6C6F6164696E6720666954
:1027E0006C616D656E7420697320616374697665D0
:1027F0002C206A7573742070726573732074686519
:10280000206B6E6F6220616E6420696E73657274F6
:102810002066696C616D656E742E2E2E0050726993
:102820006E742074696D650046696C616D656E74C7
:10283000207573656400546F74616C207072696EEA
:10284000742074696D6500546F74616C2066696CE6
:10285000616D656E74005269676874004C656674DA
:1028600000592064697374616E63652066726F6DD0
:10287000206D696E0053657665726520736B6577B0
:102880003A00536C6967687420736B65773A004D42
:102890006561737572656420736B6577005B303BAF
:1028A000305D20706F696E74206F666673657400AA
:1028B00041646A757374696E67205A3A00526561A3
:1028C000722073696465205B756D5D0046726F6E82
:1028D0007420736964655B756D5D00526967687427
:1028E00020736964655B756D5D004C65667420736B
:1028F000696465205B756D5D005365742074656D5A
:1029000070657261747572653A00464C4558202DA9
:1029100020203234302F35300050502020202D2000
:10292000203235342F3130300048495053202D208B
:10293000203232302F3130300041425320202D20C0
:10294000203235352F3130300050564220202D2096
:10295000203231352F37350050432020202D2020C4
:102960003237352F3131300041534120202D202086
:102970003236302F3130350050455420202D202064
:102980003233302F383500504C4120202D2020325A
:1029900031352F3630006E6F7A7A6C65202D20200D
:1029A0003235302F30006661726D2020202D2020BE
:1029B0003235302F383000252D31322E313253252B
:1029C0002B382E31660045787472756465723A0052
:1029D0006D6D0059005800583A00593A005A3A00B3
:1029E0002563252D31332E313353252B352E336678
:1029F0000025533A0A2531382E32666D200A2553B8
:102A00003A0A2531306C6468202530326868646D7C
:102A100020253032686864730025533A0A2531381E
:102A20002E32666D200A25533A0A2531306C6464D3
:102A30002025303268686468202530326868646D0B
:102A40000025362E32666D6D0025533A0A25530A4D
:102A500025533A0A25533A0025332E3266010025C4
:102A6000533A0A25530A252D31352E313553253356
:102A70002E3266010A252D31352E31355325332E60
:102A8000326601006572726F723A20756E6B6E6FFE
:102A9000776E206D6F7665006E6F206D6F766500C6
:102AA000542D636F646500756E6C6F6164006C6FAC
:102AB0006164006D6D755F6765745F726573706FDB
:102AC0006E7365202D20626567696E206D6F766577
:102AD0003A20006D6D755F6765745F726573706F26
:102AE0006E736528292072657475726E696E673A17
:102AF0002025640A00556E6C6F6164696E672066FC
:102B0000696E6973686564203200556E6C6F61642C
:102B1000203200556E6C6F6164696E672066696E65
:102B20006973686564203100556E6C6F6164203193
:102B3000004D4D552073746172747320726573700B
:102B40006F6E64696E67004D4D55206E6F74207214
:102B50006573706F6E64696E670046696C616D6560
:102B60006E74206F7574206F662072616E676520C9
:102B70002564200A000000803F55558541000080F3
:102B80003F0000C84100000040555505420000C00C
:102B90003F0000484200002040555585420000702B
:102BA000C1ABAAA642000060C10000A0410000C065
:102BB000C00000204100002041ABAA3A41000020A3
:102BC000C15555D540000048C2555505424D3730D6
:102BD00031204534004D373031204533004D3730FA
:102BE00031204532004D373031204531004D3730EE
:102BF000312045300046696C616D656E74206E72DF
:102C0000206F7574206F662072616E6765210020E9
:102C10006661696C65642E00207375636365656425
:102C200065642E004D4D552063616E5F6C6F61646D
:102C30003A004164646974696F6E616C206C6F6105
:102C40006420617474656D7074206E722E2025642A
:102C50000A00773235783230636C5F63666D0A0044
:102C6000773235783230636C5F656E7465720A0056
:102C700073746172740A004D4D55204F4B2E2052D3
:102C80006573756D696E672E2E2E004D4D55204F64
:102C90004B2E20526573756D696E6720706F736976
:102CA00074696F6E2E2E2E004D4D55204F4B2E20E9
:102CB000526573756D696E672074656D70657261BC
:102CC000747572652E2E2E00466978207468652012
:102CD000697373756520616E64207468656E207019
:102CE0007265737320627574746F6E206F6E204D01
:102CF0004D5520756E69742E005072657373207483
:102D00006865206B6E6F6220746F20726573756DDD
:102D100065206E6F7A7A6C652074656D706572617E
:102D2000747572652E004D4D55206E656564732077
:102D30007573657220617474656E74696F6E2E00B0
:102D400043757474696E672066696C616D656E7435
:102D500000506C656173652072656D6F76652066E5
:102D6000696C616D656E7420616E64207468656E57
:102D700020707265737320746865206B6E6F622EAD
:102D800000456A656374696E672066696C616D658C
:102D90006E74004D4D55206C6F6164206661696CE6
:102DA000656420202020200025632533642F2564BE
:102DB0002563000000000000110A045052555341E1
:102DC000334446570000002100240027002A002D2C
:102DD000003000330001010000040107010A010076
:102DE000002200250028002B002E003100340002B4
:102DF000010000050108010B01000020002300264E
:102E00000029002C002F0032000001000003010601
:102E10000109010505050507050808080802020261
:102E2000020A0A0808040404040101010101010165
:102E3000010303030303030303040707070C0C0C3C
:102E40000C0C0C0C0C020202020606060606060614
:102E5000060B0B0B0B0B0B0B0B07070A0A0A0A0AD4
:102E60000A050505040404080801021020200808CA
:102E700010204010204080020102010804020101DC
:102E800002040810204080804020100804020180C5
:102E9000040201804020100804020108040201011C
:102EA0000204081020408001020408102040801015
:102EB0000804088010204004408010204004800056
:102EC000000A0B02090C0D0E0807030401000000A4
:102ED00000000000000000000000000000000000F2
:102EE00000000000000000000000001211100000AF
:102EF00000000000000000000000000000000000D2
:102F000000000000000000000000000000000000C1
:102F10000000000000534420636172642072656CFD
:102F2000656173656400414C5446414E206465748C
:102F30002E004572726F72202D2073746174696364
:102F4000206D656D6F727920686173206265656EB2
:102F5000206F7665727772697474656E0043617272
:102F6000642072656D6F766564004F6E004F666613
:102F7000004261636B005072696E746572206E6FFF
:102F80007A7A6C65206469616D6574657220646924
:102F900066666572732066726F6D2074686520477F
:102FA0002D636F64652E20506C65617365206368C6
:102FB00065636B207468652076616C756520696E49
:102FC0002073657474696E67732E205072696E7415
:102FD0002063616E63656C6C65642E005072696E6F
:102FE000746572206E6F7A7A6C65206469616D65B4
:102FF00074657220646966666572732066726F6DAF
:103000002074686520472D636F64652E20436F6EC2
:1030100074696E75653F0054656D70657261747595
:1030200072652063616C6962726174696F6E20669B
:1030300061696C65640054656D7065726174757268
:10304000652063616C6962726174696F6E20697377
:103050002066696E697368656420616E64206163CF
:10306000746976652E2054656D702E2063616C69DD
:1030700062726174696F6E2063616E2062652064A4
:10308000697361626C656420696E206D656E752080
:1030900053657474696E67732D3E54656D702E2090
:1030A00063616C2E0046696C2E2073656E736F72BF
:1030B0000046494E44410050494E44410045787411
:1030C0007275646572004D6F7665205A004D6F769B
:1030D000652059004D6F7665205800437261736812
:1030E00020646574656374696F6E2063616E0A6243
:1030F00065207475726E6564206F6E206F6E6C79DA
:1031000020696E0A4E6F726D616C206D6F64650090
:103110005741524E494E473A0A43726173682064E0
:103120006574656374696F6E0A64697361626C6566
:103130006420696E0A537465616C7468206D6F64F5
:1031400065004175746F6C6F6164696E67206669B4
:103150006C616D656E7420617661696C61626C652D
:10316000206F6E6C79207768656E2066696C616D82
:10317000656E742073656E736F7220697320747549
:10318000726E6564206F6E2E2E2E004552524F5285
:103190003A2046696C616D656E742073656E736F5D
:1031A00072206973206E6F7420726573706F6E6425
:1031B000696E672C20706C65617365206368656358
:1031C0006B20636F6E6E656374696F6E2E004D6F5A
:1031D0006465206368616E676520696E2070726F38
:1031E0006772657373202E2E2E0043616C696272C4
:1031F00061746500536865657420252E37730A5A1B
:10320000206F66667365743A20252B312E33662055
:103210006D6D0A2563436F6E74696E75650A25636B
:1032200053746172742066726F6D207A65726F00DC
:10323000506C65617365206C6F61642066696C61B8
:103240006D656E742066697273742E0043616E63DF
:10325000656C0046696C616D656E740053656C65E4
:1032600063742066696C616D656E743A0054656DB7
:1032700070657261747572652063616C69627261F8
:1032800074696F6E206661696C65642E20436F6E91
:1032900074696E75652077697468207072657373E0
:1032A000696E6720746865206B6E6F622E005465CE
:1032B0006D70657261747572652063616C696272AC
:1032C0006174696F6E20646F6E652E20436F6E743B
:1032D000696E7565207769746820707265737369AB
:1032E0006E6720746865206B6E6F622E007B5B4595
:1032F00052523A005D5B4657523A005D5B54494D6D
:103300003A005D5B464E4D3A005D5B46454D3A00E6
:103310005D5B5043443A005B5446553A007B5B503A
:10332000524E3A39395D007B5B50524E3A355D0062
:103330007B5B50524E3A305D007B5B50524E3A39C7
:103340005D007B5B50524E3A385D007B5B524553CB
:103350003A305D5B46494C3A007B5B5245533A310B
:103360005D5B46494C3A005B50524E3A005B50461A
:103370004E3A305D005B4449413A005D5B41544246
:103380003A005D5B4154303A005D5B5354423A0071
:103390005B5354303A00473830004D3435004D34DB
:1033A00035205A00473736002020300020203100D9
:1033B00020746F6F206C6F6E672065787472757300
:1033C000696F6E2070726576656E74656400206347
:1033D0006F6C6420657874727573696F6E2070729B
:1033E0006576656E7465640052756E6E696E6720F1
:1033F00057697A6172642077696C6C2064656C65CA
:1034000074652063757272656E742063616C6962A5
:10341000726174696F6E20726573756C747320616C
:103420006E642073746172742066726F6D207468AC
:103430006520626567696E6E696E672E20436F6EE8
:1034400074696E75653F0050726568656174696E78
:1034500067206E6F7A7A6C652E20506C656173659B
:1034600020776169742E004C6F6164696E67206615
:10347000696C616D656E7400506C6561736520697F
:103480006E736572742066696C616D656E74206917
:103490006E746F20746865206578747275646572E7
:1034A0002C207468656E2070726573732074686573
:1034B000206B6E6F6220746F206C6F616420697482
:1034C0002E00506C6561736520696E73657274209F
:1034D00066696C616D656E7420696E746F207468C6
:1034E000652066697273742074756265206F66204A
:1034F000746865204D4D552C207468656E2070727F
:1035000065737320746865206B6E6F6220746F2022
:103510006C6F61642069742E005468652070726954
:103520006E7465722077696C6C207374617274209C
:103530007072696E74696E672061207A69672D7A8E
:103540006167206C696E652E20526F74617465200E
:10355000746865206B6E6F6220756E74696C20797B
:103560006F7520726561636820746865206F707480
:10357000696D616C206865696768742E20436865B1
:10358000636B20746865207069637475726573205D
:10359000696E207468652068616E64626F6F6B206D
:1035A0002843616C6962726174696F6E206368613F
:1035B00070746572292E0053656C656374207465A0
:1035C0006D706572617475726520776869636820D3
:1035D0006D61746368657320796F7572206D6174B5
:1035E000657269616C2E0043686F6F73652061209E
:1035F00066696C616D656E7420666F7220746865B3
:10360000204669727374204C617965722043616C45
:103610006962726174696F6E20616E642073656C9B
:1036200065637420697420696E20746865206F6E0C
:103630002D73637265656E206D656E752E004E6F1D
:103640007720492077696C6C2063616C69627261D4
:1036500074652064697374616E6365206265747754
:1036600065656E20746970206F6620746865206ED1
:103670006F7A7A6C6520616E64206865617462653A
:103680006420737572666163652E00596F752063DF
:10369000616E20616C7761797320726573756D65F9
:1036A000207468652057697A6172642066726F6D54
:1036B0002043616C6962726174696F6E202D3E20D7
:1036C00057697A6172642E00506C6561736520637E
:1036D0006865636B206F75722068616E64626F6FDE
:1036E0006B20616E64206669782074686520707252
:1036F0006F626C656D2E205468656E2072657375FF
:103700006D65207468652057697A617264206279FA
:10371000207265626F6F74696E67207468652070CF
:1037200072696E7465722E00416C6C20697320643E
:103730006F6E652E204861707079207072696E74AA
:10374000696E672100496620796F7520686176652A
:10375000206164646974696F6E616C20737465655F
:103760006C207368656574732C2063616C69627288
:103770006174652074686569722070726573657420
:103780007320696E2053657474696E6773202D20F1
:103790004857205365747570202D20537465656CEF
:1037A000207368656574732E00506C6561736520C5
:1037B000636C65616E206865617462656420616E2A
:1037C00064207468656E2070726573732074686518
:1037D000206B6E6F622E00446F20796F75207761C9
:1037E0006E7420746F20726570656174206C6173F3
:1037F00074207374657020746F20726561646A75DB
:1038000073742064697374616E6365206265747794
:1038100065656E206E6F7A7A6C6520616E642068D3
:103820006561746265643F0053656C656374206E06
:103830006F7A7A6C65207072656865617420746552
:103840006D70657261747572652077686963682050
:103850006D61746368657320796F7572206D617432
:10386000657269616C2E0049732066696C616D65D3
:103870006E74206C6F616465643F004E6F77204901
:103880002077696C6C2070726568656174206E6F5A
:103890007A7A6C6520666F7220504C412E00492068
:1038A00077696C6C2072756E207A2063616C696236
:1038B000726174696F6E206E6F772E004E6F772085
:1038C00072656D6F76652074686520746573742009
:1038D0007072696E742066726F6D20737465656CAA
:1038E0002073686565742E00506C65617365207285
:1038F000656D6F7665207368697070696E672068A2
:10390000656C706572732066697273742E0049204D
:1039100077696C6C2072756E2078797A2063616C9F
:103920006962726174696F6E206E6F772E204974C0
:103930002077696C6C2074616B6520617070726FA8
:10394000782E203132206D696E732E0046697273B5
:10395000742C20492077696C6C2072756E20746815
:10396000652073656C667465737420746F2063687A
:1039700065636B206D6F737420636F6D6D6F6E2068
:10398000617373656D626C792070726F626C656DC6
:10399000732E0048692C204920616D20796F757263
:1039A000204F726967696E616C2050727573612077
:1039B0006933207072696E7465722E20576F756C52
:1039C0006420796F75206C696B65206D6520746F5C
:1039D00020677569646520796F75207468726F75EA
:1039E0006768207468652073657475702070726FE5
:1039F000636573733F0048692C204920616D20790D
:103A00006F7572204F726967696E616C20507275B4
:103A10007361206933207072696E7465722E20495B
:103A20002077696C6C20677569646520796F7520F3
:103A30007468726F75676820612073686F72742094
:103A400073657475702070726F636573732C206971
:103A50006E20776869636820746865205A2D6178E4
:103A600069732077696C6C2062652063616C6962A0
:103A700072617465642E205468656E2C20796F75B0
:103A80002077696C6C2062652072656164792074AE
:103A90006F207072696E742E00452D636F727265AF
:103AA00063743A005A2D636F72726563743A0059F9
:103AB0002D636F72726563743A00582D636F727272
:103AC0006563743A0053706F6F6C4A6F696E0043A0
:103AD0007574746572004669726D77617265004D28
:103AE0006F64656C00537472696374005761726E21
:103AF00000436865636B73004E6F7A7A6C6520646F
:103B00002E004E6F6E6500416C70686162657400D6
:103B100054696D6500536F727400466C617368413F
:103B200069720053442063617264005250692070CE
:103B30006F72740054656D702E2063616C2E004CA2
:103B4000696E2E20636F7272656374696F6E0048D0
:103B50005720536574757000462E206175746F6C24
:103B60006F61640044697361626C65207374657091
:103B700070657273004D6F766520617869730054CB
:103B8000656D70657261747572650054656D702E37
:103B90002063616C6962726174696F6E0052657353
:103BA00065742058595A2063616C6962722E005006
:103BB00049442063616C6962726174696F6E00428E
:103BC0006564206C6576656C20636F7272656374E2
:103BD000004D65736820426564204C6576656C69AC
:103BE0006E670043616C696272617465205A0043BC
:103BF000616C6962726174652058595A0053656C32
:103C0000667465737420202020202020202000422C
:103C1000656C74207465737420202020202020207F
:103C20000057697A6172640057697A61726420652D
:103C30006E642073746174653A2025640A005769C4
:103C40007A6172642073746174653A2025640A0095
:103C50004578706572696D656E74616C0046736558
:103C60006E736F7220446574656374696F6E00448F
:103C7000697361626C65206661726D206D6F646549
:103C8000004D3834004D343400473238205700207E
:103C9000573A0020453A00543A005A206C6976653C
:103CA0002061646A757374206F7574206F6620726A
:103CB000616E67652E2053657474696E6720746F3A
:103CC00020302E20436C69636B20746F20636F6E0D
:103CD00074696E75652E005A206C69766520616482
:103CE0006A757374206F7574206F662072616E67D9
:103CF000652E2053657474696E6720746F203000E0
:103D000020423A0020453A00543A00494E543400CB
:103D10007265636F7665725F6D616368696E655F1A
:103D200073746174655F61667465725F706F7765E7
:103D3000725F70616E69632C20696E697469616C71
:103D4000200050525553412075766C6F0047342047
:103D50005330004D32362053256C75004D313036CE
:103D60002053004D32323020532564004731204625
:103D70002564004D38320047393220450047312054
:103D80004525302E3366204632373030004D3230F4
:103D90003420502566205225662054256600473180
:103DA000205A2566005052555341204D424C205612
:103DB000310047312058256620592566204633308A
:103DC000303000506F736974696F6E207265616482
:103DD0002066726F6D20656570726F6D3A004D32AE
:103DE00033202573002E67636F002C2066656564A1
:103DF0006D756C7469706C793A00466565647261C2
:103E000074653A0047312045252D302E3366204613
:103E100032373030004731204535204631323000CE
:103E20004D3833004D31303920532564004D313940
:103E30003020532564004D31303420532564004731
:103E4000323820582059004731205A252E33662019
:103E500046383030004731205A252D302E33662029
:103E600046252D302E33660047312045252D302E36
:103E70003366204632373030004D383300504F57CC
:103E800045522050414E49432044455445435445F2
:103E9000440055564C4F202D20656E642025640A41
:103EA0000055564C4F5F54494E59202D20656E6485
:103EB0002025640A00776F726C6420636F6F7264F0
:103EC000696E617465733A2028252E33662C20258F
:103ED0002E33662C20252E3366290A004375727214
:103EE000656E7420706F73205A5F415849533A25AC
:103EF0002E33660A43757272656E7420706F73207C
:103F0000455F415849533A252E33660A004166748D
:103F100065722077616974696E6720666F722074BC
:103F2000656D703A0A43757272656E7420706F73B6
:103F300020585F415849533A252E33660A4375721B
:103F400072656E7420706F7320595F415849533AFF
:103F5000252E33660A005265636F766572696E6757
:103F6000207072696E742020202000506174746586
:103F7000726E2063656E746572205B25662025660F
:103F80005D2C206D6174636820256625250A00205C
:103F90005B25662C2025665D5B25665D2066696E67
:103FA000616C20636972636C650A00746D63323101
:103FB00033305F676F746F5F7374657020256420A2
:103FC0002564202564202564200A004E6F20307867
:103FD00046462072656365697665640053656E6464
:103FE000696E6720307846460053442063617264EE
:103FF000206F6B006F70656E526F6F742066616921
:104000006C656400766F6C756D652E696E697420E1
:104010006661696C656400534420696E697420664A
:1040200061696C00536F7274696E672066696C65B4
:104030007300536F6D652066696C65732077696CDA
:104040006C206E6F7420626520736F727465642ECD
:10405000204D61782E204E6F2E206F662066696C91
:10406000657320696E203120666F6C64657220660E
:104070006F7220736F7274696E67206973203130BC
:10408000302E0046696E697368696E67206D6F76C1
:10409000656D656E7473004272696768746E6573EE
:1040A00073004173736973740053696C656E7400B7
:1040B0004F6E6365004C6F756400536F756E6400DE
:1040C0004D4D55204D6F64650043726173682064E7
:1040D00065742E00537465616C7468004E6F726D68
:1040E000616C0046616E7320636865636B005061AC
:1040F00075736500436F6E742E00465320416374E0
:10410000696F6E0046696C2E2073656E736F720066
:104110004368616E67652066696C616D656E7400E9
:10412000466C6F77005370656564004E2F41004DFB
:1041300061676E65747320636F6D702E005A2D7009
:10414000726F6265206E722E004D6573680054694F
:104150006D656F757400427269676874004D6F64B5
:1041600065004175746F0044696D004C6576656C3F
:104170002044696D6D6564004C6576656C20427203
:10418000696768740046616E2073706565640042FB
:104190006564004E6F7A7A6C650053657474696E5D
:1041A0006773005072696E742061626F7274656427
:1041B0000053746F70207072696E74004368656399
:1041C0006B696E672066696C650046696C6520697D
:1041D0006E636F6D706C6574652E20436F6E7469CD
:1041E0006E756520616E797761793F00045265666E
:1041F00072657368004D61696E004D363030004D58
:10420000203834004D3834004D3234004D323320E4
:10421000257300052E2E002F2F20616374696F6EA9
:104220003A63616E63656C00257500593A20257507
:10423000202D3E202E2E2E00257500583A20257563
:10424000202D3E202E2E2E004D6561737572656403
:104250002066696C616D656E742073656E736F7234
:10426000206C6F77206C6576656C3A2025342E3291
:1042700066560A004D656173757265642066696CE7
:10428000616D656E742073656E736F722068696707
:1042900068206C6576656C3A2025342E3266560AA5
:1042A00000457874722066616E2073706565643AAB
:1042B0002025640A005072696E742066616E207356
:1042C000706565643A2025640A0054657374203271
:1042D0003A00457874722066616E2073706565647B
:1042E0003A2025640A005072696E742066616E205F
:1042F00073706565643A2025640A00546573742000
:10430000313A004D38340025632041584953205339
:1043100047313D25640A00486F74656E640042654C
:1043200064005A00590058002D2D2D2D2D2D2D2DB6
:104330002D2D2D2D2D2D2D2D2D2D2D2D004F4B00C7
:10434000496E73657274207468652066696C616D6E
:10435000656E742028646F206E6F74206C6F6164CA
:104360002069742920696E746F20746865206578EF
:1043700074727564657220616E64207468656E2065
:10438000707265737320746865206B6E6F622E00A7
:10439000566572696669636174696F6E20666169EA
:1043A0006C65642C2072656D6F766520746865207D
:1043B00066696C616D656E7420616E6420747279DB
:1043C00020616761696E2E0053656E736F7220768F
:1043D000657269666965642C2072656D6F7665200B
:1043E0007468652066696C616D656E74206E6F77A8
:1043F0002E00506C6561736520636865636B207483
:1044000068652049522073656E736F7220636F6E0A
:104410006E656374696F6E2C20756E6C6F616420BD
:1044200066696C616D656E74206966207072657373
:10443000656E742E00506C6561736520756E6C6FCF
:104440006164207468652066696C616D656E7420B6
:1044500066697273742C207468656E20726570656D
:104460006174207468697320616374696F6E2E00D3
:1044700057616974696E6720666F72206E6F7A7A11
:104480006C6520616E642062656420636F6F6C6987
:104490006E670053656C662074657374204F4B0023
:1044A00053656C6620746573742073746172742034
:1044B00020005072696E742066616E3A004578740F
:1044C00072756465722066616E3A0043616C696260
:1044D000726174696E6720686F6D6500416C6C2055
:1044E000636F72726563742020202020200043686F
:1044F00065636B696E672073656E736F72732000FE
:10450000436865636B696E6720686F74656E6420CD
:104510002000436865636B696E67206265642020D4
:1045200020202000436865636B696E67205A206114
:1045300078697300436865636B696E672059206111
:1045400078697300436865636B696E672058206102
:1045500078697300436865636B696E6720656E6494
:1045600073746F70730041786973206C656E677443
:104570006820646966666572656E63653A252E33E8
:10458000660A004D656173757265642061786973B0
:10459000206C656E6774683A252E33660A004C43BA
:1045A0004420737461747573206368616E67656419
:1045B0000047312058352E302045342E30204631EA
:1045C0003030302E30004731205A302E32302046E5
:1045D000313030302E30004731205835352E3020E4
:1045E0004532352046313430302E300047312059A5
:1045F0002D322E302046313030302E3000473120E1
:10460000583234302E30204532352E30202046327C
:104610003230302E30004739322045302E300047BE
:1046200031205A302E332046313030302E30004782
:1046300031205835352E302045382E302046323046
:1046400030302E300047312058352E30204533325F
:104650002E302046313830302E300047312058354A
:10466000352E30204533322E302046313037332E30
:1046700030004731204634303030004D3230342065
:104680005331303030004731205A352046373230F0
:10469000302E30303000473120452D312E3530302E
:1046A00030302046323130302E3030303030004D16
:1046B000383300473930004732310047393220451E
:1046C000302E3000473120583530205935352045BF
:1046D000332E3632373733004731205832303020CE
:1046E0005935352045302E3439333836004731209E
:1046F00058323030205937352045332E363237374F
:104700003300473120583530205937352045302E79
:10471000343933383600473120583530205939354F
:104720002045332E36323737330047312058323068
:1047300030205939352045302E343933383600474A
:1047400031205832303020593131352045332E3622
:104750003237373300473120583530205931313521
:104760002045302E34393338360047312058353023
:1047700020593133352045332E3632373733004711
:1047800031205832303020593133352045302E36E3
:1047900036313734004731205832303020593135E6
:1047A000352045322E3632373733004731205831E5
:1047B00030302059313535204532004731205837C7
:1047C0003520593135352045322E350047312046C8
:1047D00031303830004731205A302E3135302046C4
:1047E000373230302E3030300047312058353020CD
:1047F00059313535004739322045302E30004732A7
:1048000038004D313039004D313930004D313037BD
:1048100000252D3773003A200025642F3600252D02
:1048200032305300203A2000252D323073005425B9
:1048300064004731205A302E342046313030302E3B
:104840003000473120592D332E3020463130303062
:104850002E30004D383300473120583130302E3063
:10486000204531322E352046313030302E30004751
:1048700031205836302E302045392E302046313008
:1048800030302E30005B4645462F461F461646FD0B
:1048900045EC45D745C645B145BB46B746B346AFDF
:1048A00046964686467B467246473120583530202C
:1048B0005933352045252D2E336600E947D547CCA1
:1048C00047BB47AB4795477F476A4755473F472A0E
:1048D0004716470247ED46D846C446496E76616C96
:1048E0006964205049442063616C2E2072657375A1
:1048F0006C74732E204E6F742073746F7265642015
:10490000746F20454550524F4D2E004D35303000CC
:104910004731205A31352046313530300047393162
:10492000004731205835302059313930204530206A
:10493000463730303000473930004D3834004D377D
:10494000303220430047312058313020593138303F
:10495000204634303030004731205A313020463143
:104960003330302E303030004D3134302053300071
:104970004D31303420533000473120452D302E301A
:10498000373530302046323130302E303030303014
:10499000004D313037004D31313720466972737424
:1049A000206C617965722063616C2E0052657375AD
:1049B0006D696E67207072696E740050494E444193
:1049C0002048656174696E670043616C6962726159
:1049D00074696F6E20646F6E650043616C6962720A
:1049E0006174696E67205A0042656420646F6E6569
:1049F000004265642048656174696E6700486561BE
:104A000074696E6720646F6E652E00486561746915
:104A10006E67005049442063616C2E2066696E69A0
:104A200073686564005049442063616C2E20202027
:104A30002020202020202020005072696E742070D9
:104A40006175736564005A25362E32662563005AF7
:104A50002020202D2D2D20002563253364252500C1
:104A60002D2D2D00253368686400253353253373BD
:104A700025250055534200202020002053440020CB
:104A800025753E257500203F3E257500204625757D
:104A90000020463F002046524D200025632D2D3A30
:104AA0002D2D20200025632533756820256325637F
:104AB000002563253032753A25303275256325632C
:104AC000005553415254322072782046756C6C2147
:104AD00021210053657474696E67732053746F727B
:104AE00065640053746F7265642073657474696ED5
:104AF00067732072657472696576656400486172D7
:104B000064636F6465642044656661756C742053EA
:104B1000657474696E6773204C6F616465640056D8
:104B20003200000000C8420000C8420000C8430034
:104B3000009043000048430000484300004041000B
:104B400000F042E8030000E8030000C8000000880D
:104B500013000000409C4400409C44000000000002
:104B6000000000204E00000000204100002041CD48
:104B7000CCCC3E000090400000000000000000008F
:104B8000000000CDCCCC3EA470094192755D3DE0A3
:104B9000518C438F42FC42E65A343F4C62B0450090
:104BA000000000004040000034420000000000000F
:104BB000000000000041000000E03F0000C842008B
:104BC00000C842000040410000F042C0030000C0A5
:104BD000030000C80000008813000010101020001F
:104BE000409C44627573793A2070617573656420E6
:104BF000666F7220696E70757400627573793A2001
:104C000070617573656420666F72207573657200DC
:104C1000627573793A2070726F63657373696E673A
:104C2000004D494E54454D50004D494E54454D5050
:104C30002042454400746D63323133305F686F6DDC
:104C4000655F656E74657228617865735F6D617309
:104C50006B3D307825303278290A00746D6332312B
:104C600033305F686F6D655F6578697420746D635C
:104C7000323133305F73675F686F6D696E675F6194
:104C80007865735F6D61736B3D3078253032780ADB
:104C900000726573756C742076616C75653A2025B9
:104CA000640A0020693D25326420636E743D25321C
:104CB000642076616C3D2532640A00636C75737400
:104CC0006572733A0020693D253264207374657003
:104CD0003D2532640A00736F727465642073616DE0
:104CE000706C65733A00544D432044524956455206
:104CF000204F56455254454D500025632533642FAF
:104D0000256425630024F4D43050C38E20C2A24011
:104D100017828B7011127A910D816CD90AA861E10A
:104D200008C7586607615143061E4B5D05C145A77C
:104D3000041A411104093D9803713931034036DBEF
:104D40000265339102D4305402802E1D02632CEE92
:104D500001752AC501B028A001102781018F2564A3
:104D6000012B244B01E0223401AC211F018D200DC9
:104D700001801FFC00841EED00971DDF00B81CD2CF
:104D800000E61BC600201BBC00641AB200B219A8C2
:104D9000000A19A0006A189900D117910040178BDA
:104DA00000B516840031167E00B31579003A1573EC
:104DB00000C7146F0058146A00EE1366008813636E
:104DC0000025135E00C7125B006C125700151254C9
:104DD00000C111510070114F0021114B00D6104934
:104DE000008D1047004610440002104200C00F40E2
:104DF00000800F3E00420F3C00060F3B00CB0E38F8
:104E000000930E37005C0E3500270E3400F30D3290
:104E100000C10D3100900D3000600D2E00320D2DBF
:104E200000050D2C00D90C2B00AE0C2900850C2997
:104E3000005C0C2700350C27000E0C2600E80B2424
:104E400000C40B2400A00B23007D0B23005A0B2170
:104E500000390B2100180B2000F80A1F00D90A1E88
:104E600000BB0A1E009D0A1D00800A1D00630A1C6B
:104E700000470A1B002C0A1B00110A1A00F7091A26
:104E800000DD091900C4091900AB091900920917BE
:104E9000007B091800630917004C09160036091633
:104EA00000200916000A091500F5081500E008148D
:104EB00000CC081400B8081400A4081400900813CB
:104EC000007D0812006B08130058081200460812F3
:104ED0000034081100230811001208110001081104
:104EE00000F0071000E0071000D0071000C0071006
:104EF00000B0070F00A107100091070E0083070FF5
:104F00000074070F0065070E0057070E0049070ED3
:104F1000003B070D002E070E0020070D0013070DA4
:104F20000006070D00F9060C00ED060D00E0060C6A
:104F300000D4060C00C8060C00BC060C00B0060C21
:104F400000A4060B0099060C008D060B0082060BD0
:104F50000077060B006C060B0061060A0057060B73
:104F6000004C060A0042060A0038060A002E060A0D
:104F70000024060A001A060A001006090007060A9D
:104F800000FD050900F4050900EB050900E205092B
:104F900000D9050900D0050900C7050900BE0509AB
:104FA00000B5050800AD050800A50509009C050829
:104FB00000940508008C050800840508007C05089D
:104FC00000740508006C050700650508005D05070D
:104FD00000560508004E0507004705070040050874
:104FE0000038050700310507002A050700230507DB
:104FF000001C050600160507000F0507000805063A
:105000000002050700FB040600F5040700EE040695
:1050100000E8040600E2040700DB040600D50406ED
:1050200000CF040600C9040600C3040600BD040640
:1050300000B7040600B1040500AC040600A604068F
:1050400000A00405009B04060095040500900406DA
:10505000008A04050085040500800406007A040522
:105060000075040500700405006B04050066040566
:1050700000610405005C04050057040500520405A6
:10508000004D04050048040500430405003E0404E7
:10509000003A04050035040500300404002C040522
:1050A0000027040400230405001E0404001A04045D
:1050B0000016040500110404000D04040009040591
:1050C000000404040000040400FC030400F80304CA
:1050D00000F4030400F0030400EC030400E80304FC
:1050E00000E4030400E0030400DC030400D803042C
:1050F00000D4030400D0030400CC030400C803035D
:1051000000C503030024F404D9201BC40C5C0E98D2
:1051100004C4095F0265077101F405F900FB04B3DB
:105120000048048700C10369005803550003034584
:1051300000BE023A008402310053022A00290225EF
:105140000004022000E4011C00C8011900AF01178F
:105150000098011400840113007101100061011016
:105160000051010E0043010D0036010B002B010B15
:105170000020010B00150109000C010900030108C2
:1051800000FB000800F3000800EB000700E4000645
:1051900000DE000600D8000600D2000600CC0005A4
:1051A00000C7000500C2000500BD000400B90004EE
:1051B00000B5000400B1000400AD000400A9000423
:1051C00000A5000300A20003009F0004009B000351
:1051D0000098000300950002009300030090000374
:1051E000008D0002008B0003008800020086000290
:1051F0000084000300810002007F0002007D0002A5
:10520000007B0002007900020077000100760002B6
:10521000007400020072000100710002006F0002C1
:10522000006D0001006C0002006A000100690002CC
:1052300000670001006600010065000100640002D3
:10524000006200010061000100600001005F0002D7
:10525000005D0001005C0001005B0001005A0001DC
:1052600000590001005800010057000100560001DC
:1052700000550001005400010053000000530001DC
:10528000005200010051000100500001004F0001D8
:10529000004E0000004E0001004D0001004C0001D6
:1052A000004B0000004B0001004A000100490001D2
:1052B00000480000004800010047000100460000CF
:1052C00000460001004500000045000100440001C7
:1052D00000430000004300010042000000420001C2
:1052E000004100000041000100400001003F0000BB
:1052F000003F0001003E0000003E0001003D0000B4
:10530000003D0001003C0000003C0000003C0001AA
:10531000003B0000003B0001003A0000003A0001A1
:10532000003900000039000100380000003800009A
:10533000003800010037000000370001003600008F
:105340000036000000360001003500000035000086
:10535000003500010034000000340000003400017A
:105360000033000000330000003300010032000071
:105370000032000000320001003100000031000066
:10538000003100010030000000300000003000015A
:10539000002F0000002F0000002F0000002F000150
:1053A000002E0000002E0000002E0001002D000045
:1053B000002D0000002D0000002D0001002C000039
:1053C000002C0000002C0000002C0001002B00002D
:1053D000002B0000002B0000002B0001002A000021
:1053E000002A0000002A0000002A00010029000015
:1053F0000029000000290000002900000029000108
:1054000000280000002800000028000000280000FC
:1054100000280001002700000027000000270000EE
:1054200000270000002700010026000000260000E1
:1054300000260000002600000026000100250000D4
:1054400000250000002500000025000000250000C8
:1054500000250001002400000024000000240000BA
:1054600000240000002400010023000000230000AD
:1054700000230000002300000023000000230000A0
:105480000023000100220000002200000022000092
:105490000022000000220000002200010021000084
:1054A0000021000000210000002100000021000078
:1054B0000021000000210001002000000020000069
:1054C000002000000020000000200000002000005C
:1054D0000020000000200001001F0000001F00004D
:1054E000001F0000001F0000001F0000001F000040
:1054F000001F0001001E0000001E0000001E000032
:10550000001E000000506C6561736520776169744E
:105510000000002110422063308440A550C660E79F
:1055200070088129914AA16BB18CC1ADD1CEE1EF58
:10553000F13112100273325222B5529442F772D6F0
:1055400062399318837BB35AA3BDD39CC3FFF3DEA8
:10555000E36224433420040114E664C774A4448540
:10556000546AA54BB528850995EEE5CFF5ACC58DF8
:10557000D55336722611163006D776F6669556B490
:10558000465BB77AA719973887DFF7FEE79DD7BC48
:10559000C7C448E5588668A77840086118022823E0
:1055A00038CCC9EDD98EE9AFF9488969990AA92B98
:1055B000B9F55AD44AB77A966A711A500A333A1230
:1055C0002AFDDBDCCBBFFB9EEB799B588B3BBB1AE8
:1055D000ABA66C877CE44CC55C222C033C600C4180
:1055E0001CAEED8FFDECCDCDDD2AAD0BBD688D4938
:1055F0009D977EB66ED55EF44E133E322E511E70D0
:105600000E9FFFBEEFDDDFFCCF1BBF3AAF599F7887
:105610008F8891A981CAB1EBA10CD12DC14EF16F38
:10562000E18010A100C230E320045025404670679D
:1056300060B9839893FBA3DAB33DC31CD37FE35EC9
:10564000F3B1029012F322D23235421452776256ED
:1056500072EAB5CBA5A89589856EF54FE52CD50DD9
:10566000C5E234C324A0148104667447642454053D
:1056700044DBA7FAB79987B8975FE77EF71DC73C69
:10568000D7D326F2369106B016576676761546348D
:10569000564CD96DC90EF92FE9C899E9898AB9AB79
:1056A000A94458654806782768C018E1088238A3DD
:1056B000287DCB5CDB3FEB1EFBF98BD89BBBAB9A09
:1056C000BB754A545A376A167AF10AD01AB32A922D
:1056D0003A2EFD0FED6CDD4DCDAABD8BADE89DC919
:1056E0008D267C076C645C454CA23C832CE01CC17D
:1056F0000C1FEF3EFF5DCF7CDF9BAFBABFD98FF8A9
:105700009F176E367E554E745E932EB23ED10EF0CC
:105710001E7C3C3E3F2F2A225C00437573746F6DE4
:105720000054657874757200536D6F6F746800472C
:10573000312059252D2E32662045252D2E33660029
:105740004731205825642059252D2E3266204525C5
:105750002D2E3366006673656E736F725F636865C6
:10576000636B706F696E745F7072696E74006673DC
:10577000656E736F722076302E3420696E206661FC
:10578000756C742072616E676520342E362D355627
:10579000202D20756E636F6E6E65637465640066A0
:1057A00073656E736F7220696E20666F72626964D2
:1057B00064656E2072616E676520312E352D33561B
:1057C000202D20636865636B2073656E736F7200B4
:1057D000312E3000312E3500554E4B4E4F574E0076
:1057E0004C413130433A204C696E6561722041640E
:1057F00076616E6365206D6F64653A20004C4131BF
:1058000030433A2041646A757374656420452D4ABB
:1058100065726B3A2000000E1315110E0000000493
:10582000120912040000001C1F11111F00000006C5
:10583000191803130C00040E1F041C000000040AB6
:105840000A0A0A11110E001F1511151F0000000190
:1058500003161C0800000000110A04110A040C12AF
:10586000120C000000002563252D31382E313853ED
:105870002563005B25735D2563005B25535D256310
:10588000002563252D31382E31385300756E6B6E2F
:105890006F776E2073746174650020302E34206F32
:1058A00072206E657765720020302E33206F722073
:1058B0006F6C64657200200A200A200047393900A5
:1058C00044697361626C65206661726D206D6F64FE
:1058D000653F004C6F616420616C6C00506C6561C9
:1058E00073652070756C6C206F75742066696C61CF
:1058F0006D656E7420696D6D6564696174656C7940
:1059000000556E6C6F6164696E672066696C616DCD
:10591000656E740052657365740052656E616D65E5
:10592000004669727374206C617965722063616CE2
:105930002E0053656C65637400537465656C207349
:10594000686565747300537570706F72740046619A
:10595000696C207374617473204D4D550046616904
:105960006C20737461747300537461746973746927
:10597000637320200043616C6962726174696F6EA9
:10598000004175746F4C6F61642066696C616D6570
:105990006E74004375742066696C616D656E740089
:1059A000456A6563742066696C616D656E74005547
:1059B0006E6C6F61642066696C616D656E74004C1D
:1059C0006F616420746F206E6F7A7A6C65004C6F23
:1059D00061642066696C616D656E74004E6F205362
:1059E000442063617264005072696E742066726F45
:1059F0006D20534400526573756D65207072696E39
:105A000074005061757365207072696E7400507215
:105A100065686561740054756E65004C6976652033
:105A200061646A757374205A00496E666F207363EF
:105A30007265656E004572723A205052494E54208C
:105A400046414E204552524F52004572723A20450F
:105A50005854522E2046414E204552524F52002F4C
:105A60002F20616374696F6E3A70617573656400AD
:105A70002F2F20616374696F6E3A726573756D655F
:105A800064002F2F20616374696F6E3A72657375BD
:105A90006D6500526573656E640025533A20256C70
:105AA000640A25530A00496E6163746976697479E2
:105AB0002053687574646F776E004B494C4C4544B5
:105AC0002E20005072696E7465722068616C746576
:105AD000642E206B696C6C28292063616C6C656492
